:020000040800F2
:10000000B020002075020008071800080517000836
:1000100005180008C704000851320008000000005D
:10002000000000000000000000000000851900082A
:100030003D05000800000000831900089119000820
:100040008F0200088F0200088F0200088F0200084C
:100050008F0200088F0200088F0200088F0200083C
:100060008F0200088F0200088F0200088F0200082C
:100070008F0200088F0200088F0200088F0200081C
:100080008F0200088F0200088F02000800000000A5
:100090000000000000000000000000008F020008C7
:1000A0008F0200088F0200088F0200088F020008EC
:1000B0008F0200088F0200088F0200088F020008DC
:1000C0008F0200088F0200088F0200088F020008CC
:1000D0008F0200088F0200088F0200080000000055
:1000E0008F0200088F0200088F0200080000000045
:1000F0000000000000000000000000008F02000867
:10010000000000008F0200088F0200088F02000824
:1001100000000000000000000000000000000000DF
:100120008F0200088F0200088F0200088F0200086B
:100130008F02000800000000000000000000000026
:100140000000000000000000000000000918000886
:100150008F0200088F0200088F0200088F0200083B
:100160008F0200088F02000800000000000000005D
:10017000000000000000000000000000000000007F
:10018000000000008F0200080000000000000000D6
:100190008F02000800F002F800F05CF80AA090E876
:1001A000000C82448344AAF10107DA4501D100F032
:1001B00051F8AFF2090EBAE80F0013F0010F18BFA3
:1001C000FB1A43F0010318471431000034310000DA
:1001D0000A444FF0000C10F8013B13F0070408BF6D
:1001E00010F8014B1D1108BF10F8015B641E05D00B
:1001F00010F8016B641E01F8016BF9D113F0080FC0
:100200001EBF10F8014BAD1C0C1B09D16D1E58BF51
:1002100001F801CBFAD505E014F8016B01F8016B88
:100220006D1EF9D59142D6D37047000000230024FB
:1002300000250026103A28BF78C1FBD8520728BFF6
:1002400030C148BF0B6070471FB503F039F81FBDC0
:1002500010B510BD00F001F91146FFF7F5FF03F0EE
:1002600009F800F01FF903B4FFF7F2FF03BC00F038
:1002700023F900000948804709480047FEE7FEE7E8
:10028000FEE7FEE7FEE7FEE7FEE7FEE7FEE7FEE746
:1002900004480549054A064B704700002D1A00081E
:1002A00095010008B0140020B0200020B0180020F4
:1002B000B018002053EA020C00F069802DE9F04BE1
:1002C0004FF00006002B1FBFB3FA83F503FA05F4C5
:1002D00024FA05F65E4012BF1643B2FA82F502FA1E
:1002E00005F4C5F120051EBF22FA05FC44EA0C0402
:1002F000203556EA044C4FEA144418BF641C4FF0F2
:1003000000084FF00009904271EB030C39D300292B
:1003100019BFB1FA81F701FA07F6B0FA80F700FACF
:1003200007F6C7F120071EBF20FA07FC46EA0C06B5
:100330002037B6FBF4FCA7EB0507103F07F01F0BB7
:10034000CBF120060CFA0BFB2CFA06F644BFB346A1
:100350000026202FA4BF5E464FF0000B5BEA060C80
:1003600008BF4FF0010B19EB0B09ABFB027C48EB0C
:100370000608C01B06FB02CC0BFB03CC71EB0C0187
:10038000C1E70B46024641464846BDE8F08B13B52F
:100390004FF000004FF00001AFF30080BDE81C40BB
:1003A000704710B5203AC0F00B80B1E81850203AE1
:1003B000A0E81850B1E81850A0E81850BFF4F5AF05
:1003C0005FEA027C24BFB1E81850A0E8185044BF8F
:1003D00018C918C0BDE810405FEA827C24BF51F8FC
:1003E000043B40F8043B08BF7047D20728BF31F8F0
:1003F000023B48BF11F8012B28BF20F8023B48BF41
:1004000000F8012B70474FF0000200B513469446E8
:100410009646203922BFA0E80C50A0E80C50B1F15C
:100420002001BFF4F7AF090728BFA0E80C5048BF70
:100430000CC05DF804EB890028BF40F8042B08BF0E
:10044000704748BF20F8022B11F0804F18BF00F80A
:10045000012B7047704770477047754600F028F8C9
:10046000AE4605006946534620F00700854618B0A1
:1004700020B5FFF70DFFBDE820404FF000064FF01C
:1004800000074FF000084FF0000B21F00701AC46C9
:10049000ACE8C009ACE8C009ACE8C009ACE8C009E8
:1004A0008D4670470446AFF300802046FFF7DBFE21
:1004B000004870475014002001491820ABBEFEE7E9
:1004C000260002007047FEE70020704700207047BA
:1004D00010B500220449054801F0BFFB0449034858
:1004E00001F0B2FB002010BD400A0020880100206E
:1004F0005806002010B50146034801F0A5FB02484C
:1005000001F087FB002010BD88010020002070470B
:10051000094A10B5D2F8BC22D2F814220AB101203F
:1005200010BD0A460146044801F097FBBDE81040A3
:10053000014801F0FCBB000088010020704772B642
:10054000FEE7000070B5044600F00CF90546601C9B
:1005500002D004480078044400F004F9401BA04293
:10056000FAD370BD640000202DE9F84FDFF8B8A180
:10057000002201240AF1040B03254FF00F090BF1AF
:10058000040E00BF0B6804FA02F63340B34273D185
:100590000F7907F00307012F01D0022F16D18768CA
:1005A0004FEA420805FA08FC27EA0C07D1F80CC00C
:1005B0000CFA08FC4CEA070CC0F808C04768B743BF
:1005C0000E79C6F3001696403E4346600E79F64318
:1005D000B6070DD0C768560005FA06FC27EA0C07D7
:1005E000D1F808C00CFA06FC4CEA070CC0F80CC0A5
:1005F0000E7906F00306022E10D1D60800EB86080D
:10060000D8F8206057074FEAD76C09FA0CF7BE43B9
:100610000F6907FA0CF73743C8F8207006684FEAED
:10062000420C05FA0CF7BE430F7907F0030707FAEF
:100630000CF7374307604E6816F4403F6DD03B4ED1
:10064000376847F480473760366822F0030706F4BE
:1006500080460096364E07EB060CDCF808689707D4
:100660003F0F09FA07F826EA0806DFF8C880404578
:1006700003D14FF000081EE04FE0DFF8BC8040459A
:1006800002D14FF0010816E0DFF8B080404502D1FA
:100690004FF002080FE0DFF8A880404502D14FF08C
:1006A000030808E0DFF89C80404502D14FF00408C1
:1006B00001E04FF0070808FA07F848EA0608CCF806
:1006C0000888DAF800605746D1F804C09E435FEA14
:1006D000CC3C00D51E433E60DBF800605F46D1F89D
:1006E00004C09E435FEA8C3C00D51E433E60DEF8AA
:1006F00000607746D1F804C09E435FEACC2C00D559
:100700001E433E60084F0C373E68D1F804C09E433C
:100710005FEA8C2C00D51E433E60521C102AFFF469
:1007200031AFBDE8F88F0000003C01404438024082
:100730000030014000000240000402400008024076
:10074000000C024000100240426921EA02030A4004
:1007500043EA0241816170470AB18161704709042F
:10076000FBE700000148806870470000640000203B
:10077000024881680278114481607047640000205B
:100780000B4810B5016841F400710160016841F443
:1007900080610160016841F480710160032000F014
:1007A0006FF80F2000F006F800F024F8002010BDCC
:1007B000003C024070B50D4D04464FF47A71287824
:1007C000B1FBF0F00A490968B1FBF0F000F086FFD8
:1007D00048B9102C07D200222146501E00F030F8F4
:1007E00000206C6070BD012070BD0000640000201E
:1007F000700000200A4808B5016841F4804101609A
:10080000006800F4804000900548001F016841F036
:1008100080510160006800F08050009008BD000029
:1008200044380240002809DB00F01F0201219140FA
:100830004009800000F1E020C0F80011704700007E
:10084000F0B40E4B1B680C46C3F30223C3F107053B
:10085000042D00D90425191D072901D2002300E029
:10086000DB1E012606FA05F1491E214099409E40F3
:10087000761E16403143F0BC02F0EBBC0CED00E0FC
:10088000064900F0070208684FF6FF03184040EAE7
:100890000220034A10430860704700000CED00E09E
:1008A0000000FA0570470068416200207047F0B50B
:1008B0000368586A39B19C6A4FF4827600EB14449D
:1008C00000204D1E0AE040EA024098620FE006EB6D
:1008D0008007DF59401C04EB1744C0B2A842F6D38E
:1008E00044EA02404FF4807202EB8101585000202C
:1008F000F0BDD0F8040401F051BCC1EBC10200EB23
:100900008202D0F80404926C01F0BEBBC1EBC102BC
:1009100000EB8202D0F80404D2F8082201F008BCEF
:10092000D0F8040401F03CBC70B504460B0601F09D
:100930000F00C0EBC00104EB81014FF001024FF04A
:10094000000503D581F83D203C3103E081F8FD51DD
:1009500001F5FE71087094F8BC03012808D084F8F2
:10096000BC23206801F0DAFF84F8BC53002070BD7E
:10097000022070BD70B5044601F00F00626890421D
:1009800001D9012070BD0B0601F00F01C1EBC101BF
:1009900004EB81014FF001024FF0000503D581F80F
:1009A0003D203C3103E081F8FD5101F5FE718D7071
:1009B000087094F8BC03012808D084F8BC23206890
:1009C00002F0A6F984F8BC53002070BD022070BD6F
:1009D00001F00F01C1EBC10100EB8100D0F814025E
:1009E00070472DE9F04104460F0601F00F00C0EBFF
:1009F000C00104EB81014FF001064FF0000503D563
:100A000081F83D603C3103E081F8FD5101F5FE7154
:100A100008708A60CB704A7802B1C880022B00D17E
:100A20000D7194F8BC03012809D084F8BC632068D8
:100A300001F0CCFE284684F8BC53BDE8F0810220CA
:100A4000FBE770B50C4601F00F05C5EBC50100EBE7
:100A50008101C1F81032C1F808220023C1F8143214
:100A600081F8FD3181F8FC51036901F5FE71012B1C
:100A700000D10A612207027C006803D002F0A0F9CD
:100A8000002070BD02F08CF8FAE770B504460D4600
:100A900001F00F006168884201D9012070BD29066C
:100AA0004FF000064FF0010207D5C0EBC00104EB88
:100AB000810181F83D203C3107E0C5EBC50104EB25
:100AC000810181F8FD6101F5FE718A70087094F86A
:100AD000BC03012807D084F8BC23206802F044F945
:100AE000280702D007E0022070BD217C04F5717256
:100AF000206802F0E1F884F8BC63002070BD70B596
:100B00000C4601F00F05C5EBC50100EB81010B653B
:100B10008A6400234B65012381F83D3001F83C5F76
:100B20000369012B00D10A612207027C006803D00F
:100B300002F046F9002070BD02F032F8FAE700003A
:100B40002DE9FC5F05680446284602F06AFA002891
:100B50007ED1206802F091FA002879D0206802F056
:100B60008CFA800704D52168486900F002004861CA
:100B7000206802F082FAC10604F57170009034D545
:100B80002068816921F0100181612F6A07F00F0050
:100B9000C0EBC00004EB8006C7F3434006F5FE76C9
:100BA000022802D0062811D01AE047F6F07007425A
:100BB00016D0C7F30A1217462846F16802F061FA08
:100BC000F0683844F060B069384408E008222846EC
:100BD000009902F056FAB069C7F30A110844B061EF
:100BE0002068816941F010018161206802F045FAB6
:100BF00000034FF0010A4FF0080B5BD50026206878
:100C000002F01AFA0746DFF8689351E0F8074DD072
:100C1000F1B2206802F029FA8046C00707D005EB40
:100C20004611C1F808AB3146204600F0F3FD5FEAFB
:100C3000087022D505EB4611C1F808BB2068016C8D
:100C400000EB46100191D0F8082B494507D900E088
:100C50008BE1110403D54FF40041C0F8081B204676
:100C600000F073FA0198484507D92069012804D19A
:100C700020680121009A02F01FF85FEAC86004D5DD
:100C800005EB46111020C1F8080B5FEA886004D517
:100C900005EB46112020C1F8080B5FEA884005D516
:100CA00005EB46104FF40051C0F8081B7F08761C76
:100CB000002FABD1206802F0E0F940034FF00009AB
:100CC0005CD5206802F0B1F90746002654E0F80729
:100CD00050D0F1B2206802F0B6F98046C00723D0A8
:100CE00006F00F020AFA02F0D5F834288243C5F85C
:100CF000342805EB4610C0F808A9206901280FD157
:100D0000C6EBC60004EB8000D0E9112111448164D8
:100D100036B9206D20B920680121009A01F0CCFF7E
:100D2000F1B22046FFF7E9FD5FEA087003D505EB55
:100D30004611C1F808B95FEAC86004D505EB461151
:100D40001020C1F808095FEA486004D505EB461198
:100D50004020C1F808095FEA887004D505EB461108
:100D60000220C1F808095FEA086003D53146204631
:100D700000F0B6FD7F08761C002FA8D1206802F095
:100D80007CF9002811DAD5F8040820F00100C5F834
:100D9000040894F8F403012829D0204600F0B9F99A
:100DA0002068416901F000414161206802F065F965
:100DB00000050BD5D5F80808C00702D0204600F082
:100DC000EDF92068416901F400614161206802F099
:100DD00054F9C00468D5D5F8040820F00100C5F81E
:100DE00004081021206802F0F9F8002127E084F8B7
:100DF000F49300212046FFF755FDD1E705EB4110A4
:100E00004FF67F32C0F80829D0F8003923F40013D8
:100E1000C0F80039D0F8003943F00063C0F8003959
:100E2000C0F8082BD0F8002B22F40012C0F8002BD9
:100E3000D0F8002B42F00062C0F8002B491C60681B
:100E40008842DBD8D5F81C0840F00110C5F81C0812
:100E5000206B60B1D5F8840840F00B00C5F8840819
:100E6000D5F8440840F00B00C5F844080CE0D5F86C
:100E7000141842F22B000143C5F81418D5F81008D5
:100E800040F00B00C5F81008D5F8000820F4FE600B
:100E9000C5F80008217C2068009A01F00DFF206849
:100EA000416901F480514161206802F0E6F8800454
:100EB00015D5206801F0CAFC206802F0A5F8E060B2
:100EC00000F01EFA0146227B206802F039F9204624
:100ED00000F00CF92068416901F40051416120687B
:100EE00002F0CBF8000707D5204600F016F920687D
:100EF000416901F008014161206802F0BEF8C002BA
:100F000008D50021204600F035F82068416901F439
:100F100080114161206802F0B0F8800208D50021FC
:100F2000204600F02BF82068416901F4001141616E
:100F3000206802F0A2F8400007D52046FFF7D9FC50
:100F40002068416901F080414161206802F095F814
:100F500040070AD520684568680702D52046FFF794
:100F6000DFFC2068416829434160BDE8FC9F000028
:100F70000A30544FD0F8040401F062B9D0F80404E8
:100F800001F06EB92DE9F0418AB0040005D094F863
:100F9000BD032668002520B108E001200AB0BDE8A5
:100FA000F08184F8BC53204600F05EF8032084F8FA
:100FB000BD03F06BC00500D42561206801F0EAFD97
:100FC00004F11001282288466846FFF7EAF994E800
:100FD0000F0001F049FC0226C8BB0021206802F086
:100FE0006FF8002001270EE0C0EBC00104EB810187
:100FF00081F83D7001F83C0FC880CD708D60CD60E8
:10100000401CC0B24D6161688142EDD8002011E002
:10101000C0EBC00104EB810181F8FD5181F8FC01B6
:1010200081F8FF51C1F80452C1F80852401CC0B207
:10103000C1F8105261688142EAD8282241466846C8
:10104000FFF7AFF994E80F0001F0EAFC10B184F863
:10105000BD63A2E784F8385084F8BD73206801F0BE
:10106000D1FC00209AE7000010B586B00446142198
:101070006846FFF7C8F92068B0F1A04F2FD1194892
:101080000021026842F001020260006800F00100E5
:1010900005904FF4C05000900220CDE901010320DB
:1010A00003900A20049069460F48FFF75DFA0D4847
:1010B000001D016841F0800101600A481430016898
:1010C00041F4804101600068002200F480400590F6
:1010D00011464320FFF7B4FB4320FFF7A3FB06B004
:1010E00010BD0000303802400000024070B50446D8
:1010F000C0680125022801D0FFF721FA2946D4F85B
:10110000040401F019F9D4F80404BDE8704001F0BA
:10111000CCB8D0F8040401F0F5B8D0F8040401F01C
:10112000FBB810B5044690F8BC0301280BD0012091
:1011300084F8BC0384F83810206801F0EFFF002029
:1011400084F8BC0310BD022010BDD0F8042400F5C3
:101150007171104601F0FCB810B50446006894F8AF
:10116000BC13012906D0012184F8BC13A16A01290E
:1011700002D008E0022010BDA169012903D0816BD3
:1011800041F480318163206801F00EFF206801F096
:101190002BFC002084F8BC0310BD000010B50446F1
:1011A000D0F8040401F016F92068D0F8001E41F0D0
:1011B0000101C0F8001E206A002804D0024801681E
:1011C00041F00601016010BD10ED00E02DE9F0478F
:1011D0000E46050065D0DFF81481D8F80000F7B29C
:1011E00000F00700B04207D288F80070D8F800007D
:1011F00000F00700B04254D128683D4C810712D559
:10120000400703D5206840F4E050206028780007AC
:1012100003D5206840F4604020602068A96820F071
:10122000F000084320602878C0072DD03049686856
:101230000839012812D0022813D0032811D00968D8
:10124000890700292DDA216821F00301014321607B
:10125000FFF788FA814641F2883A0EE0096889036F
:10126000EFE709688901ECE7FFF77CFAA0EB0901D9
:10127000514502D90320BDE8F0872068696800F075
:101280000C00B0EB810FEFD1D8F80010404601F010
:101290000701B14207D90770006800F00700B042AB
:1012A00001D00120E7E72878400705D52068E968E4
:1012B00020F4E050084320602878000706D5206815
:1012C000296920F4604040EAC100206000F01EF867
:1012D0002168084AC1F30311515CC84006490860FF
:1012E00006480068FFF766FA0020C4E7003C0240A9
:1012F00008380240CA320008700000206800002050
:10130000014800687047000070000020154810B5C3
:10131000006810F00C02144813D01449042A0FD0AE
:10132000082A0ED10F4C241F2268236802F03F02C6
:101330005B0207D52068C0F38810A0FB010106E01E
:10134000084610BD2168C1F38811A1FB00010023EC
:10135000FEF7B0FF2168C1F30141491C4900B0FB11
:10136000F1F010BD083802400024F40040787D01FF
:101370002DE9F84F04006ED02078DFF84C93C007B9
:10138000A9F104054AD009F104000168C1F3810103
:10139000012908D00068C0F3810002280AD1D9F8D9
:1013A0000000400206D52868800337D56068002811
:1013B000E1D033E06068B0F5803F10D0B0F5A02FE9
:1013C000286810D020F480302860286820F480201D
:1013D00028606068A8B1FFF7C5F906460DE02868E7
:1013E00040F48030F4E740F480202860F7E700BF45
:1013F000FFF7B8F9801B642873D828688003F7D5F5
:101400000CE0FFF7AFF9064605E000BFFFF7AAF9C9
:10141000801B6428F0D828688003F7D42078DFF890
:10142000AC8280074FF0000A3ED5A748001D016836
:1014300011F00C0F08D00068C0F3810002280BD116
:10144000D9F80000400207D42868800716D5E06864
:10145000012800D112E033E1E068B8B10120C8F8FA
:101460000000FFF77FF9064605E000BFFFF77AF9B5
:10147000801B0228C0D828688007F7D52868216912
:1014800020F0F80040EAC10028600DE0C8F800A094
:10149000FFF768F9064604E0FFF764F9801B0228AD
:1014A0001FD828688007F7D42078000722D5864FF8
:1014B00087486169703771B101210160FFF752F906
:1014C000064604E0FFF74EF9801B022809D8386869
:1014D0008007F7D50EE0C0F800A0FFF743F90646F5
:1014E00005E082E0FFF73EF9801B02287DD83868CE
:1014F0008007F7D42078400768D5DFF8CCB1002703
:101500000BF13C0BDBF80000C0000BD4DBF8001043
:1015100041F08051CBF80010DBF80000012700F00B
:10152000805000906B4E3068C00510D4306840F495
:1015300080703060FFF716F9009005E0FFF712F9B0
:101540000099401A022850D83068C005F6D55E4E82
:10155000A0686C3601280FD00528306810D020F024
:1015600001003060306820F004003060A068B8B13D
:10157000FFF7F8F800900FE0306840F00100F4E762
:1015800040F004003060F7E7FFF7ECF80099411AEB
:1015900041F28830814266D830688007F4D50EE089
:1015A000FFF7E0F8009007E0FFF7DCF80099411A38
:1015B00041F28830814256D830688007F4D42FB188
:1015C000DBF8001021F08051CBF80010A069C8B3FF
:1015D0003D49091D0968C1F3810102294AD0022849
:1015E000504607D0C8F8600000E03CE0FFF7BAF8CA
:1015F00004463BE04746C8F86000FFF7B3F80646EC
:1016000005E000BFFFF7AEF8801B02282BD8286842
:101610008001F7D4D4E907010843A16A2E4A49089A
:1016200002EB0141626A41EA8211084394F82C10EE
:1016300040EA0161C9F8001001203866FFF792F80E
:10164000044606E03EE000BFFFF78CF8001B0228CE
:1016500009D828688001F7D534E000BFFFF782F889
:10166000001B022802D90320BDE8F88F28688001FA
:10167000F4D427E00128F7D0D9F80000E26900F49B
:10168000800191421CD1226A00F03F01914217D1A2
:1016900047F6C071626A0140B1EB821F10D1A26AA5
:1016A0004FF0FF3300F4403103EB5202B1EB024F35
:1016B00006D194F82C1000F07060B0EB016F01D0EF
:1016C0000120D1E70020CFE7043802400000474264
:1016D000800E4742007000400000FFFF10B5401E22
:1016E000B0F1807F01D3012010BD4FF0E024606194
:1016F0000F21601701F0ADFD0020A06107202061DF
:10170000002010BDFEE70000F0B500230A243025BC
:1017100037261F4611E000BFB4EB107F02D905EB5E
:10172000107C01E006EB107C01F813C001EB430CC8
:1017300000015B1C8CF80170DBB29342ECD3F0BD6E
:1017400070B586B014216846FEF75DFE1648002588
:10175000016841F004010160016801F00401059194
:10176000016841F080010160016801F0800105918C
:10177000016841F00101016000680C4E00F00100B9
:101780004FF400540590002221463046FEF7E4FF56
:101790000121CDE90041CDE9021569463046FEF749
:1017A000E3FE06B070BD0000303802400008024081
:1017B00010B500220F49104800F041FC08B1FEF7B7
:1017C000BEFE0E490C4800F02DFE08B1FEF7B7FE34
:1017D0000B49094800F031FA08B1FEF7B0FE06489F
:1017E00000F09AFE002803D0BDE81040FEF7A7BE27
:1017F00010BD0000000000208801002050010020E2
:1018000050000020FEE7FEE70148FFF799B900000D
:10181000481000202DE9F04103680D4604461E6C77
:1018200003EB4511D1F8080BD4F810E04FF4004752
:101830004FF0200C04F57172BEF1010F09D0DFF8F2
:1018400098E0764539D1020432D500BFC1F8087B53
:101850003FE0224B5FEA007E04D59E4239D9000466
:10186000F4D436E05FEA806E02D5C1F808CB30E0F0
:1018700010F0280F2DD19E4201D90004E6D4C5EB0B
:10188000C50004EB8000D1F8101BD0F80432C1F37E
:101890001201591AC0F81412D0F808121944C0F8ED
:1018A000081295B9D4F8100278B9012120680AE02D
:1018B00080060AD5C1F808CB07E035B9D4F8100284
:1018C00018B90021184601F0F7F9E9B22046FFF7F0
:1018D0001DF80020BDE8F0810A31544F0A30544F02
:1018E0002DE9F84F0E46C1EBC60100EB810481469D
:1018F0000568D4E914103C34884202D90120BDE8BF
:10190000F88F081AA168814200D20846C01C8708D7
:1019100005EB46181BE000BFA0EB010AA06850458C
:1019200000D282460AF10300870899F8100000905F
:101930001FFA8AF3F2B22846E16801F075FCE1680B
:1019400001EB0A00E060A16901EB0A00A061D8F890
:10195000180980B2B84205D3D4E90501814201D209
:101960000028D9D1D4E90501884208D806F00F0132
:1019700001208840D5F834188143C5F83418002078
:10198000BDE7704770470178407841EA0020704712
:10199000FEF7EEBE70B592B030216846FEF733FD1B
:1019A00014210CA8FEF72FFD1E480025016841F008
:1019B00080510160006800F0805011901A48016861
:1019C00021F4404141F4004101600068022400F428
:1019D0004040119001200090000401908001CDE969
:1019E00006400F269020CDE9086004200A900520CB
:1019F0000B906846FFF7BCFC08B172B6FEE74FF4E7
:101A0000A050CDE90E504FF48050CDE90C641090F9
:101A100001210CA8FFF7DAFB002801D072B6FEE71F
:101A200012B070BD403802400070004002480168AA
:101A300041F470010160704788ED00E02DE9F0414C
:101A40000C46D0F8C422D0F8BC12F9B104EB8403E0
:101A500000EB83050026AB694BB1C4EBC40702EB76
:101A60008702526CB3FBF2F702FB173282B1C1F866
:101A70001462D0F8C00203692BB1D1F808022246E3
:101A800001F5047198470020BDE8F0810320FBE7D1
:101A900000231A462146AE6100F0A5FCF3E770B5BD
:101AA000D0F8BC4205466CB100F086FBC4F80C02CD
:101AB000D5F8C012D4F80402CA6804F5037190473F
:101AC000002070BD032070BD70B50446812100F078
:101AD000D2FA002525870121204600F0CCFAA4F88F
:101AE00078518221204600F0C6FAA4F84C50A4F8A0
:101AF0004E50D4F8BC0248B1D4F8C00204F52F749B
:101B000040688047206800F05CFE2560002070BDC2
:101B100010B5D0F8BC4284B1D0F8C01259B194F8D5
:101B20000002FF2807D08B6894F8012221469847CD
:101B3000FF2084F80002002010BD032010BD00002B
:101B40000A2101800048704778000020432101806D
:101B500000487047C80000204321018000487047BA
:101B60008400002043210180004870470C010020C0
:101B70002DE9F04704464FF4077000F023FE0500FE
:101B80004FF0000735D0C4F8BC52207C4FF010084D
:101B90004FF40079012680B34023022281212046A0
:101BA00000F06EFB2687402302220121204600F030
:101BB00067FBA4F87861A4F84E80082303228221F1
:101BC000204600F05DFBA4F84C60D4F8C002006829
:101BD0008047C5F81472C5F81872207CD5F8042225
:101BE000A8B140230121204600F056FB0020BDE8AB
:101BF000F0870220C4F8BC72F9E7FFE74B460222E7
:101C00008121204600F03CFB26874B46CCE74B4623
:101C1000E8E710B5D0F8BC1251B1027C002AD1F827
:101C2000042207D04023012100F036FB002010BD24
:101C3000032010BD4FF40073F5E719B1C0F8C012CE
:101C40000020704703207047D0F8BC0218B1C0F8DC
:101C500004120020704703207047D0F8BC0228B15E
:101C6000C0F81022C0F80812002070470320704707
:101C70002DE9FC410646D0F8BC7200200C468DF8D8
:101C80000000ADF80400054637B1207810F060017F
:101C900028D0202944D102E00320BDE8FC81E2885D
:101CA000C2B1000660780AD5D6F8C0128B683946F2
:101CB0009847E288072A00D90722394628E087F8A2
:101CC0000002A07987F80102E2883946304600F028
:101CD0006CF82AE0D6F8C012607800228B682146A2
:101CE000984722E0607830B101281ED00A2809D038
:101CF0000B2815D110E096F89C02032810D102227F
:101D000001A905E096F89C02032809D10122694641
:101D1000304600F064F808E096F89C02032804D0EE
:101D20002146304600F036F803252846B5E710B5C1
:101D3000D0F8BC12012219B1D1F8143213B10FE05E
:101D4000032010BD0122C1F81422D1F81022C26272
:101D5000D1F81032D1F80822812100F044FB002292
:101D6000104610BD10B5D0F8B8220AB1526890479D
:101D7000002010BD134610B50A46002100F08CFA71
:101D8000002010BD134610B50A46002100F02BFBC1
:101D9000002010BD10B50446802100F009FB20464C
:101DA000BDE81040002100F003BB10B50323C0F8CC
:101DB0009432C0F858211346C0F85C210A4600212D
:101DC00000F06AFA002010BD10B50521C0F8941289
:101DD00000231A46194600F05FFA002010BD10B526
:101DE0000223C0F8943282611346C2610A46002180
:101DF00000F0F9FA002010BD10B50421C0F89412CB
:101E000000231A46194600F0EEFA002010BD00002B
:101E100010B50A46024903A000F0E1F8004810BDE1
:101E20005804002043444320436F6E6669670000F6
:101E300012200880004870472000002010B50A4694
:101E4000024903A000F0CBF8004810BD5804002060
:101E500043444320496E7465726661636500000007
:101E600004200880004870471C00002010B50A4676
:101E7000024903A000F0B3F8004810BD5804002048
:101E800053544D6963726F656C656374726F6E69EC
:101E90006373000010B50A46024903A000F09FF8E2
:101EA000004810BD5804002053544D333220566969
:101EB000727475616C20436F6D506F727400000016
:101EC00010B51A2008800A480168001D0468001D2A
:101ED0000068081809D008220649FFF715FC0549D3
:101EE000042210312046FFF70FFC0248801E10BD6F
:101EF000107AFF1F36000020F8B504460020ADF828
:101F0000000048880D46010A08295FD2DFE801F089
:101F10005E0409175E5E3C45D4F8B412207C0A6862
:101F200019E0207C02260028D4F8B80205D0C16A46
:101F3000684688470146467039E0816AF8E7C0B2D2
:101F4000062843D2DFE800F0030A1014181CD4F866
:101F5000B402426805E0694690471CE0D4F8B40238
:101F6000826892B3207CF6E7D4F8B402C268F8E73E
:101F7000D4F8B4020269F4E7D4F8B4024269F0E795
:101F8000D4F8B4028269ECE7207CF0B9D4F8B80246
:101F9000416B68468847014609E0207CA8B9D4F81F
:101FA000B802016B68468847014607204870EA88F6
:101FB0008AB1BDF8000040B1824200D90246ADF8B6
:101FC00000202046FFF70BFFF8BDFFE7294620461B
:101FD000FFF7E0FEF8E72046FFF70EFFF4E770B5E5
:101FE000002300281ED00025044602E06D1CEDB23F
:101FF000641C2678002EF9D1022404EB45041480D9
:102000001278CA545B1C0322CA5400245B1C06E0ED
:10201000CA545B1CDAB28C54521CD3B2401C0278F6
:10202000002AF5D170BD01004FF0000004D0012955
:1020300001D0022901D0032070470120704778B1F8
:102040000023C0F8B832C0F8C032C0F8CC3209B1B1
:10205000C0F8B412012180F89C12027000F0B0B8F0
:102060000320704710B5D0F8C402FEF783FCBDE82A
:102070001040FFF7D8BF10B5D0F8C402FEF754FCEB
:10208000BDE81040FFF7CFBF70B51646044621B13A
:1020900094F89C02032841D048E0D4F8941204F14B
:1020A00014000025022932D1D0E902318B4206D931
:1020B0005A1A826031462046FFF764FE0FE09942CB
:1020C00014D14068884211D3D4F8981288420DD2B6
:1020D000002211462046FFF755FEC4F8985200230F
:1020E0001A461946204600F0D7F810E094F89C02F2
:1020F000032805D1D4F8B802C16809B12046884741
:102100008021204600F054F92046FFF75DFE94F848
:10211000A00201280AD184F8A05207E0D4F8B8023E
:1021200042691AB120469047002800D1002070BDB6
:1021300010B51346044621B194F89C02032823D01D
:102140002AE0D4F8941204F5AA70032924D1D0E926
:10215000021291420AD98A1A8260C068824200D370
:10216000024619462046FFF705FE15E094F89C024A
:10217000032805D1D4F8B802016909B1204688477F
:102180002046FFF739FE07E0D4F8B80282691AB199
:1021900020469047002800D1002010BD0020704745
:1021A00010B5012180F89C12D0F8B82212B1526803
:1021B00001799047002010BDD0F8C402FEF708BC9A
:1021C00010B5017839BB15490222C1F80404C0F8E2
:1021D000C4124FF0A0400860042048600020C1E90C
:1021E0000320C1E9062008624862C8620863084605
:1021F000FEF7C8FE08B1FEF7A2F980210748FEF7F6
:1022000052FB402200210548FEF751FB80220121AC
:102210000248FEF74CFB002010BD000048100020D3
:102220000A0601F07F01D0F8C402C1EBC10100EB46
:10223000810002D590F83E00704790F8FE0170478B
:1022400010B5D0F8B82222B190F89C32032B02D0FE
:1022500004E0032010BD126A02B19047002010BDB7
:1022600010B5D0F8B82222B190F89C32032B02D0DE
:1022700004E0032010BD526A02B19047002010BD57
:1022800010B51C461346D0F8C4022246FEF7A9FB3F
:10229000BDE81040FFF7C7BE10B5D0F8C402FEF786
:1022A000D0FBBDE81040FFF7BEBE70B50125044667
:1022B00080F89C520020C4F894026060C4F8A40224
:1022C000D4F8B802E0B1D4F8BC1221B1426812B11E
:1022D0000021204690470022402311462046FFF768
:1022E000CFFF4026A4F864513346002280212046C7
:1022F000C4F86061FFF7C4FFA5840020266270BDAA
:10230000032070BD90F89C12042903D190F89D120F
:1023100080F89C120020704710B5D0F8B81221B197
:1023200090F89C22032A02D004E0032010BDC96962
:1023300001B18847002010BD01740020704710B51E
:10234000D0F8C402FEF7EDFEBDE81040FFF76BBE0B
:1023500070B5044600F2AA20054600F04DF80120B1
:10236000C4F89402B4F8B002C4F8980294F8AA022F
:1023700010F01F010AD001290ED0022912D000F05E
:1023800080012046BDE8704000F012B82946204682
:10239000BDE8704000F0C2B829462046BDE8704054
:1023A00000F0E6B929462046BDE8704000F040B98B
:1023B00010B5D0F8C402FEF768FBBDE81040FFF787
:1023C00032BE10B5D0F8C402FEF7C6FEBDE810401C
:1023D000FFF729BE90F89C1280F89D12042180F826
:1023E0009C120020704710B5D0F8C402FEF787FB9E
:1023F000BDE81040FFF717BE70B5054611F8010B98
:102400002870087868704C1C2046FFF7BCFA68807A
:10241000A41C2046FFF7B7FAA880A01CFFF7B3FA68
:10242000E88070BD38B504460020ADF8000049B121
:10243000C4F8B812C96A19B168468847C4F8CC0212
:10244000002038BD032038BD02460320D2F8B83240
:10245000002B02D01B681046184770472DE9F04149
:102460000F462C4E8978002504463170012906D983
:1024700039462046FFF78EFC0320BDE8F08194F832
:102480009C0202280CD003281DD039462046FFF7B5
:1024900081FC31782046FFF765FC03252846ECE7F0
:1024A00099B320466160FFF7CFFF050004D039469D
:1024B0002046FFF76FFCF1E72046FFF79DFC032065
:1024C00084F89C02EAE74FF00208C1B160688842D4
:1024D0001BD0C1B22046FFF745FC31782046616031
:1024E000FFF7B2FF050010D039462046FFF752FC37
:1024F00021792046FFF736FC84F89C82CEE784F8E9
:102500009C8220466160FFF72DFC2046FFF774FC9B
:10251000C4E7000074000020FFF753BF2DE9F0412D
:102520000A78002512F0600208D0202A01D0402A43
:1025300071D1D0F8B8229268904731E04B780022F0
:1025400001260A2B67D2DFE803F0415E6658660871
:1025500005662D29FFF7D0FC5FE004468888D8B9CE
:10256000C888C8B94888802816D200F07F0794F838
:102570009C02032810D084F89E7239462046FFF74B
:10258000DEFE2046FFF738FC1FB1022084F89C02D3
:1025900043E084F89C6240E020463CE0FFF75EFFA9
:1025A00005463AE0CB88012B35D190F89C32012BBF
:1025B00004D0022B02D0032B2DD104E08260012233
:1025C00000F1080116E00122011D13E090F89C22A1
:1025D000012A03D0022A01D0032A1CD1CA88022A68
:1025E00019D1C660D0F8A41209B10321C16002223A
:1025F00000F10C01FFF7F3FB0FE0498801290CD132
:10260000C0F8A46211E090F89C32012B08D0022B94
:1026100006D0032B04D0FFF7BDFB2846BDE8F081B0
:1026200049880129F9D1C0F8A422FFF7E5FBF4E7B6
:102630002DE9F0410D46044628780026097910F06E
:1026400060000BD0202801D040286DD1D4F8B8020A
:102650002946826820469047064686E06878A8B3F7
:10266000012822D003287CD194F89C02022802D0B1
:10267000032876D10BE0002973D0802971D0204641
:10268000FFF796FE80212046FFF792FE6DE06888F6
:1026900038B931B1802904D0E88810B92046FFF755
:1026A00087FE2046FFF7A8FB5FE094F89C02022813
:1026B000E1D0032855D16888A8BB480602D020463F
:1026C000FFF7D0FC2046FFF797FBBFE7FFE794F842
:1026D0009C020027022802D0032842D111E009B150
:1026E00080293ED1080601F07F0000EB800004EB5A
:1026F000800101D5143101E001F5AA7102220F60B9
:102700002BE0080601F00F0000EB800004EB8000D6
:102710000BD5808C40B101F07F0000EB800004EB12
:10272000800514350CE020E01BE0B0F86401C0B176
:1027300001F07F0000EB800004EB800505F5AA7531
:1027400041B1802906D02046FFF76AFD10B1012073
:10275000286000E02F60022229462046FFF73FFB59
:1027600003E029462046FFF715FB3046BDE8F0811F
:1027700070B50646087800240D4610F0600003D0BE
:10278000202801D0402817D196F89C02012803D0B8
:10279000022801D003280FD1287901280CD8D6F8B7
:1027A000B8028268304690470446E888204306D144
:1027B0003046FFF721FB02E03046FFF7EBFA2046F8
:1027C00070BD704700487047280E002070B50A7829
:1027D000012302F00F054E78AB401B4CD0F81C587B
:1027E000012E17D045EA0343C0F81C3800EB421015
:1027F000D0F8002B12040BD4D0F8002B0B89C97829
:10280000C3F30A031A4344EA81410A43C0F8002B88
:10281000002070BD9BB21D43C0F81C5800EB421055
:10282000D0F800391B04F3D4D0F800390D89C978E9
:10283000C5F30A0589042B4341EA82510B43234324
:10284000C0F80039E4E7000000800010D0F800195B
:102850006FF30A01C0F80019D0F8041841F4807130
:10286000C0F804180020704770B5044606990A9E07
:10287000049D0D98012916D0E06840F04000E0600A
:10288000204600F02BF8A16B1EB321F48031A16328
:10289000012D07D1A16841F00601A160A16841F0B6
:1028A0002001A16070BDA16B21F48031A163E168BA
:1028B000094A1140E160E16821F44011E16001281A
:1028C00003D1E06840F48010E060204600F006F894
:1028D000DEE741F48031DAE7BFFFBDFF08B5002233
:1028E0000D490092009B5B1C00938B420CD803693E
:1028F000002BF7DA0092026942F001020261009AAD
:10290000521C00928A4201D9032008BD0269D207F5
:10291000F5D1002008BD0000400D030030B54C7813
:102920000A78012300EB4212012C2CD0D2F8004B84
:10293000002C0BDAD2F8004B44F00064C2F8004BD4
:10294000D2F8004B44F08044C2F8004BD0F83C5819
:102950000C7804F00F0403FA04F425EA0444C0F8E8
:102960003C48D0F81C48097801F00F018B4024EA5C
:102970000341C0F81C18D2F8000B19490840C2F8EE
:10298000000B002030BDD2F80049002C0BDAD2F841
:10299000004944F00064C2F80049D2F8004944F00C
:1029A0008044C2F80049D0F83C480D7805F00F0586
:1029B00003FA05F5ADB2AC43C0F83C48D0F81C486A
:1029C000097801F00F018B4099B28C43C0F81C4884
:1029D000D2F8000903490840C2F80009D1E7000015
:1029E0000078F3EF007833ECD0F8001E21F00301FB
:1029F000C0F8001ED0F8041821F00201C0F8041835
:102A000000207047D0F8001E21F00301C0F8001E1E
:102A1000D0F8041841F00201C0F8041800207047F3
:102A20002DE9F04F00250E460446DDF82CC0DDF8F8
:102A300024B0109F2846294604EB8002C2F80411F6
:102A4000401C0F28F8D32046C7B1806B20F4001239
:102A5000A263A06B40F40022A26308468846C4F833
:102A6000000ED4F800182046C4F80018BCF1010F7D
:102A700016D0D0F8001841F0030116E0D0F8040891
:102A800040F00202C4F80428A06B40F40012A263D4
:102A9000A06B20F40022A263A06B20F48022DBE76D
:102AA000D0F800180BB141F00101C0F80018102156
:102AB00000F094FA00B10125204600F07BFA00B145
:102AC00001254046C4F81088C4F81488C4F81C884E
:102AD00000214FF000694FF0904A4FF67F3314E029
:102AE00004EB4112D2F800C9BCF1000F06DA11B1B3
:102AF000C2F800A904E0C4F8009901E0C2F8000996
:102B0000C2F81009C2F80839491C8E42E8D80021E1
:102B100015E000BF04EB4112D2F800CBBCF1000F6E
:102B200006DA11B1C2F800AB04E0C4F8009B01E082
:102B3000C2F8000BC2F8100BC2F8083B491C8E42C9
:102B4000E8D8D4F8101821F48072C4F81028A061D5
:102B50006FF080406061BBF1000F03D1A06940F0CD
:102B60001000A061A06909490843A0610C9818B140
:102B7000A06940F00800A061012F03D1A0690449B9
:102B80000843A0612846BDE8F08F000000383C8073
:102B900004000040816821F001018160002070473D
:102BA00070B50D784E78434CEBB200EB4313012E19
:102BB0001FD0D3F8100B6FF31200C3F8100BD3F82B
:102BC000100B2040C3F8100B486908B188684861B1
:102BD000D3F8100B40F40020C3F8100BD3F8100BFF
:102BE0008C68C4F312042043C3F8100B012A55D09B
:102BF00058E04E69002ED3F8106932D06FF31206F8
:102C0000C3F81069D3F810692640C3F810694E69FB
:102C10008C68A64200D94C61D3F8104944F40024D2
:102C2000C3F81049D3F810494E69C6F3120634436D
:102C3000C3F81049012A22D000EB4512D2F800391E
:102C400043F00443C2F800394A6932B3D0F834285B
:102C5000097801F00F03012199400A43C0F8342894
:102C600026E02640C3F81069D3F8104944F4002444
:102C7000C3F81049D3F810496FF31204D8E7096973
:102C800019B100EB4512C2F8141900EB4510D0F849
:102C9000001941F00441C0F8001909E0C86808B102
:102CA000C3F8140BD3F8000B40F00440C3F8000B3A
:102CB000002070BDFFFF07E010B5036C134CA3426A
:102CC00003D9D0F8003B002B1EDB0023C0F8103BDB
:102CD000D0F8103B43F40023C0F8103BD0F8103B71
:102CE00043F01803C0F8103BD0F8103B43F0C0434A
:102CF000C0F8103B012907D1C0F8142BD0F8001BF5
:102D000041F08021C0F8001B002010BD0A30544F54
:102D10004A780B78012A00EB43100BD0D0F8002B37
:102D200022F40012C0F8002BC978032914D002291C
:102D300012D017E0D0F8002922F40012C0F80029C0
:102D4000C978032901D002290CD1D0F8001941F02B
:102D50008051C0F8001905E0D0F8001B41F0805107
:102D6000C0F8001B002070470A784B78D1B200EB06
:102D70004110012B12D0D0F8001B002906DB2AB12C
:102D8000D0F8001B21F08041C0F8001BD0F8001BD8
:102D900041F40011C0F8001B00207047D0F8001962
:102DA000002906DB2AB1D0F8001921F08041C0F8D3
:102DB0000019D0F8001941F40011C0F80019EBE730
:102DC000F8B50C784F78774DE3B26FF0604600EBC2
:102DD0004313012F26D0D3F8104B6FF31204C3F81E
:102DE000104BD3F8104B2C40C3F8104B4C69002CFF
:102DF00074D08D682C44641EB4FBF5F4D3F8105BDA
:102E0000A4B206EAC4463543C3F8105BD3F8105B9E
:102E10008E686643C6F312042543C3F8105B012A8B
:102E200071D0A6E04F691FB3D3F810796FF3120782
:102E3000C3F81079D3F810792F40C3F810794F698F
:102E40008D682F447F1EB7FBF5F506EAC545D3F81C
:102E500010693543C3F81059D3F810594E69C6F3B9
:102E600012063543C3F81059CD78012D10D01BE060
:102E7000D3F810692E40C3F81069D3F8105945F4FF
:102E80000025C3F81059D3F810596FF3120509E063
:102E9000D3F8105925F0C045C3F81059D3F810598C
:102EA00045F00055C3F81059012A18D000EB44131F
:102EB000D3F8004944F00444C3F80049CC78012C0D
:102EC0002FD04A6962B3D0F83428097801F00F0393
:102ED000012199400A43C0F8342860E036E00A69CD
:102EE0001AB100EB4413C3F81429C97801290FD192
:102EF000D0F80818C90500EB4411D1F8002903D413
:102F000042F0005202E030E042F08052C1F8002965
:102F100000EB4410D0F8001941F00441C0F800194A
:102F20003DE0D0F80848E405D3F8004902D444F065
:102F3000005401E044F08054C3F8004900928A8AAA
:102F400093B20A78C96800F06FF928E0D3F8104B03
:102F50008D68C5F312052C43C3F8104BD3F8104B02
:102F600044F40024C3F8104B59E7CA680AB1C3F807
:102F7000142BC97801290CD1D0F80808C005D3F862
:102F8000000B02D440F0005001E040F08050C3F844
:102F9000000BD3F8000B40F00440C3F8000B0020F6
:102FA000F8BD0000FFFF07E0816841F0010181608A
:102FB0000020704708B500210091102101610649E9
:102FC000009A521C00928A4201D9032008BD02696E
:102FD000D206F5D4002008BD400D030008B500223C
:102FE0000092202242EA811101610649009A521C96
:102FF00000928A4201D9032008BD02699206F5D4E5
:10300000002008BD400D0300D0F8080810F00600AD
:1030100004D0022803D0062801D00F2070470220D8
:103020007047406900F001007047D0F81818D0F8D8
:103030001C08084080B27047D0F81818D0F81C0857
:103040000840000C704710B5D0F81038D0F834287C
:1030500001F00F0400EB4110E24002F00102D0F851
:10306000080943EAC212104010BD00EB4111D1F82B
:10307000081BD0F81408084070474169806908406F
:10308000704730B503460846940802F00301002259
:1030900003F5805303E01D6840F8045B521CA24214
:1030A000F9D300290BD01C680022D50024FA05F3BF
:1030B000491E521C090400F8013B090CF5D130BD32
:1030C00070B50446C068002520F0C040E0600129CA
:1030D00001D079B120E0E06840F00050E0600120CC
:1030E000FDF730FA60696D1C10F0010F10D1322D20
:1030F000F5D30DE0E06840F08040E0600120FDF78E
:1031000021FA60696D1C10F0010F01D0322DF5D34A
:10311000322D01D0002070BD012070BDD0F80028F4
:1031200022F4FE62C0F80028D0F800284FF4FE63B5
:1031300003EA01110A43C0F800280020704700008C
:10314000022A3ED1264A274B0A449A4201D20F2135
:1031500038E0254A254B0A449A4201D20E2131E03B
:10316000234A244B0A449A4201D20D212AE0224AE2
:10317000224B0A449A4201D20C2123E0204A214BDF
:103180000A449A4201D20B211CE01F4A1F4B0A44F9
:103190009A4201D20A2115E01D4A1E4B0A449A4266
:1031A0000FD31D4A1D4B0A449A4201D2082109E05F
:1031B0001B4A11441B4A914201D2072102E0062119
:1031C00000E00921C26822F47052C260C2684FF464
:1031D000705303EA81210A43C26000207047000057
:1031E000405327FF00350C00401E1BFF40420F00DC
:1031F00000DC0BFF804F1200808CF9FE20D61300FC
:1032000060B6E5FE60E3160000D3CEFE40771B00FB
:10321000C05BB3FEC091210000CA91FE207538004A
:10322000E05459FEE09C410010B5029C74B9DB1CCF
:103230009C0800EB0230002300F5805004E000BF42
:1032400051F8042B02605B1CA342F9D3002010BD8F
:10325000FEE70907090E002804DB00F1E02080F8F2
:103260000014704700F00F0000F1E02080F8141DFA
:10327000704700001CB5FDF783FAFEF78BFBFEF7E5
:103280005FFAFEF795FA0B4D4FF400544FF4FA76BF
:1032900021462846FDF758FA3046FDF753F906A1B6
:1032A000D1E90001CDE9000105216846FDF730F9BB
:1032B000EEE700000008024068656C6C6F000000DB
:1032C0004FF04070E1EE100A70470000000000006F
:1032D000000001020304060708090000FC32000890
:1032E0000000002088010000D0010008C033000861
:1032F00088010020281F00002C02000813311E1B2B
:103300000861041A6D041A95041AC1041A11041AEA
:103310003D0417040309041201140202021640833B
:10332000044057260201020301031A1A0313D104B1
:103330001B08CD041AC9041AF504130D051A083325
:103340001182105324F4130A0632022A401C1C096D
:1033500002435B1125C03209041B01020B13052433
:103360001610010524011009010424020205240697
:10337000170107058203081C10090491320A1D0772
:10338000050102432C070581070938442A40072A12
:103390008107112B0907440A3B04441B711BFC12D3
:1033A0001A1408711C42081A11101A3D101A9F04B1
:1033B000C11A59181A4D041A65041A410400000074
:040000050800019559
:00000001FF
